S00E00004B53303130382E73726563AF
S113000057C5000073C5000071C500006FC500002E
S11300106DC500006BC5000069C5000067C5000020
S113002065C5000063C5000061C500005FC5000030
S11300305DC500005BC5000059C5000057C5000040
S113004055C5000053C5000051C500004FC5000050
S11300504DC500004BC5000049C5000047C5000060
S113006045C5000043C5000041C500003FC5000070
S11300703DC500003BC5000039C5000037C5000080
S113008035C5000033C5000031C50000B805B4050E
S1130090B005AC05A306A306A306A306A306A30600
S11300A0A306A306A306A306A306A306A306A30604
S11300B0A306A306A306A306A306FB0509061706C3
S11300C02506330641064F065D066B06790687064C
S11300D0A606A306A3069506A606BF00030304040A
S11300E00304050C0DFFFE08FE08FE017603450916
S11300F0B9200500CC09210882C4894B8C00220850
S1130100336D8B884A0023128744BC483012324531
S113011082919029128CC4002410A53CAB5825224E
S113012009314524915A080025198AC41D914C228D
S11301308949122529224944128C486221492C26D6
S113014001261188C42CA92428894A2332911265D6
S113015022012706316D8A01280CA4B4BA50482222
S1130160D2260B06290CA4B48A604C498B280D00B6
S11301702A0B555CAB949449A610002B0A554CAB42
S113018060A8140C012C0842B4098A04002D06133B
S11301905C8A012E0622C409022F0C84C4BAA45816
S11301A028168AC500300B85449B89842F92090048
S11301B0310984451BC9482F04320D85449B898429
S11301C0221389628701330E85449B89842212524B
S11301D028920900340C8544AB95882432BA8906E8
S11301E0350C85448B8324C842914C00360D8544DC
S11301F09B89844691B0482600370B84448B432C5A
S1130200140B6901380E85449B898422994858242B
S11302101300390D85449B89844542A34826003A3E
S11302200752C40912013B0872B4091245023C0882
S113023056CC4B91B2023D0735548B6A013E0956A8
S1130240CC0BB19222003F0D85449B899A48140738
S1130250C944004014A93CBDA14C148D8428FA491A
S1130260228A43E420120041108943CC38603C0DBB
S11302700943B253503222421087440C938A4852A5
S113028052114944870800430E8744AC491A71AAA5
S11302901809862800441288C40C9B2C2493C82473
S11302A032894C228B9800450F86C40B8B28220977
S11302B0912421514474461086C40B8B28228A4809
S11302C0422449484602470F8744AC491A712AAA76
S11302D04962A24900481189440D0A452692894E73
S11302E032914C249330490984C40A8A482F044A21
S11302F00C86C42B9A5045979068044B1189C40C02
S1130300925A4C1494448B22990A69004C0B86C46B
S11303100B9A50A788E8004D198B440E1A65368A4B
S11303204822A28824228A4822A290524865222187
S11303304E1488C40CD944161A8528A10829348A75
S1130340496611004F0D8744AC598A8C9B24161BB7
S113035001500F87440C938A48229294A4421A00B5
S11303605114983CAC612C2493C8243209452411BF
S113037052A21200520D88C40C9B48A7584DA48564
S113038032530C86C49B255AB1469A4C00540C86B1
S1130390C48B8B9690501B0500551388C40CCA441B
S11303A0169285642159481692C54800561288C48D
S11303B00CCA441692C5244149501215CB00571952
S11303C08B440E8A6422128594429288242489489C
S11303D06293A14C281301581188C40CCA44169A7C
S11303E004C7C3C828269910591088C40CCA4416D7
S11303F093042551B12A09005A0A86C48B9B6CB414
S11304004D765B08A3348A8A7E195C0C84C48A58AE
S113041030168C0563015D08A3348A897E295E0B3E
S11304206554AB606C144993055F0616340B036086
S11304300723740A9100610854C48A998462620D86
S113044086C40BA116C984449A4C00630B55449B83
S11304508968268A4C00640B86C4BBA1CA8965A23C
S113046000650955449B89E42024660D85C4AA8946
S1130470242222C9942800670C8634CBD048A26970
S113048066BB00680B86C40BA116C984C424690A20
S113049084C41A9174A485006A0AA3B41AB5892E77
S11304A014006B0C86440BA11609892451196C089D
S11304B084C48A91BE106D0E5AC40D8948B242128A
S11304C0914424056E0A56C40B89644262126F0A71
S11304D056C41B8A88494201700D76B40B89644264
S11304E0225D843300710F77B49B8A482292484678
S11304F012A99000720954C40AC949090073085426
S1130500C49A12A902740973449A88A4A22475098E
S113051056C40B11978902760C56C48B894A48122B
S1130520138A00770F59448D892E21892426114A74
S11305304400780B56C48B894A4C165119790E76AF
S1130540B48B894A4812138A6642007A0955440BCF
S11305508B48C9007B0BA4B42A89484526D2267C43
S11305600781468B43007D0CA4B40A99484D22D2DE
S113057022027E0826DC9B896402A00500CC09A126
S11305800882B4095AE400A20E753CCB882522895E
S11305904C22A31800A30F87442C922824B4096585
S11305A092CB0400A40F574C8CC824A224114924D4
S11305B0914900A51088C40CCA44169304254269C5
S11305C0514A02A60781468B0901A70EA4B41AD288
S11305D04C12A14464230A00A80823748A882400C6
S11305E0A91388C42C5A30129A48421149503449EC
S11305F08C9100AA0863540A592536AB0B56C4AB38
S1130600140945241125AC0735548B6202AD061339
S11306105C8A01AE1488C42C5A3012A1484211C914
S113062048129124C64800AF0614F40A02B00943E4
S1130630649A14490A00B109554CAB50290E28B2EA
S11306400843E49949CA00B30843E489496C02B4F5
S11306500723741A0A00B50A76B40B11170B510854
S1130660B61187449CC32442094D829160241889A1
S113067015B70622DC0902B80732358AD000B9085A
S113068043E499882832BA0A64D41A494814911266
S1130690BB0E56C48B504822925024A11000BC13A8
S11306A088C49C584896149B8443C1882C428A452C
S11306B000BD1288C49C584896149B8443B2485287
S11306C02C6900BE1388C48C512C3112138543C18C
S11306D0882C428A4500BF0D85342B991C145293F3
S11306E0482600C014B9432C39448E16078CA72120
S11306F06148760A4A4604C113B9435CB11C290E09
S1130700184F43C290EC14948C08C214B943BCA98A
S1130710448E12078CA7216148760A4A4604C31501
S1130720B9433C493022478A03C6D39030243B0561
S1130730252302C415B943BC483812478A03C6D3DB
S11307409030243B05252302C515B9433C71282C60
S113075087C401E3694818929D82921101C6168AE2
S1130760C4AD432C228A4524B110AD128A892231AA
S113077011C500C710A734AC491A71AA1809868894
S1130780511900C812B6C41BA91C62114524219238
S113079024248A880EC911B6C43B758845149184F3
S11307A048929028223ACA12B6C4AB91446C1145BF
S11307B024219224248A880ECB14B6C4AB482C126C
S11307C007584411498824098922A203CC0BB4C4D4
S11307D00A999422D20B01CD0BB4C42A899422D253
S11307E00B01CE0CB5C49A892A49A6270A00CF0A60
S11307F0B4C49A1C2922BD10D01188C40C9B2C248B
S1130800334964129944163101D118B8C43C492CB7
S11308102287C926B2D02844094548A1514C328BBD
S113082000D210B7442CB11C384B917193C462238D
S113083000D310B7443CA11C3A4B917193C462237A
S113084000D411B744AC99440E9BA5C8B84962B111
S11308501100D512B7442C49282207CE5264DC2457
S1130860B1D80800D612B744AC48301207CE52644F
S1130870DC24B1D80800D70A554C0B8964169B2890
S1130880D8128744AC495A445489502225492C1221
S11308901901D916B8C42C39400EA44C6421594806
S11308A01692856421598C04DA16B8C44CA91C48E4
S11308B099C842B2902C240BC942B2180900DB1625
S11308C0B8C4BCA1440EA24C642159481692856454
S11308D021598C04DC17B8C4BC483412875126B2A1
S11308E0902C240BC942B2902C4602DD12B8C44CA1
S11308F0A91C4899C86292A0242A562501DE0F87B4
S1130900448C6949452411494A421A00DF1087443E
S11309102C928A48A2A42292882A1200E00A84C453
S11309200A997426A118E10A84C42A897426A11894
S1130930E20E95C4AAD84475289A44241400E30C02
S113094085C41ACD43D12422A100E40A84C48A4870
S1130950D6998462E50C84C41A4928229949280648
S1130960E60E58C48CC92424911C24B20901E70D55
S113097075349B8968268ACC622200E80C85441B66
S1130980A11C30911C8404E90B85442B75C8447266
S11309901012EA0C9544ABD8447922390809EB0DBE
S11309A085449BA4481C30911C8404EC0A84C40A2A
S11309B09974A48500ED0A84C42A8974A48500EE80
S11309C00B95C4AAD84475A68902EF0A84C48A4840
S11309D0D6911602F00E86C40B5168944611314923
S11309E02800F10D86C41B498A1CA232213109F268
S11309F00D86C41BA91C441131492800F30C86C47C
S1130A003B751045C424A100F40F96C4ABE0482202
S1130A108750444C120A00F50E86C42B498A1C42A6
S1130A201131492800F60E86C49BB4481C44113188
S1130A30492800F70A554CAB38A00E0801F80D768A
S1130A40BCDB0845622149285100F90B86C41BA967
S1130A501C22E23251FA0B86C43B758888CB4401D0
S1130A60FB0D96C4ABE048220788B84C14FC0C86F6
S1130A70C49BB4481C22E23251FD10A6B43B75C895
S1130A80442524890945332100FE0EA6B40BA11682
S1130A90C98444BA086700FF11A6B49BB4481C3249
S1130AA05109496242D14C0800000004FFFF0000D4
S1130AB011241FBECFEFD0E1DEBFCDBF11E0A0E017
S1130AC0B1E0E8E7F5E200E00BBF02C007900D9249
S1130AD0AC32B107D9F715E0ACE2B1E001C01D9228
S1130AE0A63EB107E1F73CD10C94BA1289CAEBE3F4
S1130AF0F0E080818D7F808380818E7F8083808100
S1130B008B7F80838081877F80838FE385BB808117
S1130B10816080839AE1892F8A95F1F780818E7FA5
S1130B2080839A95F1F70895AF92BF92CF92DF92A6
S1130B30EF92FF920F931F93DC0170E0FB01B997D2
S1130B40E732F10508F0FFC0EA5BFF4FEE0FFF1F2D
S1130B500590F491E02D099481E08A95F1F7F6C0AF
S1130B6081E08A95F1F7F2C085E38A95F1F7EEC04A
S1130B70642F70E080E090E00E949A115B016C01A8
S1130B8020E030E04AE755E40E9428127B018C0102
S1130B9020E030E040E85FE30E946A1188231CF4FF
S1130BA061E070E024C0C801B70120E03FEF4FE7E7
S1130BB057E40E9424121816B4F4C601B50120E0CB
S1130BC030E040E251E40E9428120E946E11CB01F1
S1130BD0672B09F4BBC020E931E0F9013197F1F743
S1130BE00197D9F7B3C0C801B7010E946E11CB01B8
S1130BF00197F1F7ABC0442331F0E5E3F0E08081E5
S1130C0081608083A3C0E5E3F0E080818E7F8083F0
S1130C109DC0442331F0E5E3F0E08081826080836D
S1130C2095C0E5E3F0E080818D7F80838FC044230D
S1130C3031F0E5E3F0E080818460808387C0E5E300
S1130C40F0E080818B7F808381C0442331F0E5E331
S1130C50F0E080818860808379C0E5E3F0E0808102
S1130C60877F808373C0442331F0E5E3F0E0808123
S1130C70806180836BC0E5E3F0E080818F7E8083B8
S1130C8065C0442331F0E5E3F0E080818062808335
S1130C905DC0E5E3F0E080818F7D808357C044230D
S1130CA031F0E5E3F0E08081806480834FC0E5E3C8
S1130CB0F0E080818F7B808349C0442331F0E5E3F9
S1130CC0F0E080818068808341C0E5E3F0E08081CA
S1130CD08F7780833BC0442331F0EBE3F0E08081E5
S1130CE08160808333C0EBE3F0E080818E7F80837A
S1130CF02DC0442331F0EBE3F0E0808184608083F5
S1130D0025C0EBE3F0E080818B7F80831FC0442308
S1130D1031F0EBE3F0E080818260808317C0EBE385
S1130D20F0E080818D7F808311C0442331F0EBE3B8
S1130D30F0E080818860808309C0EBE3F0E080818B
S1130D40877F808303C081E056968C9381E01F9156
S1130D500F91FF90EF90DF90CF90BF90AF900895E8
S1130D606F927F928F929F92AF92BF92CF92DF92B7
S1130D70EF92FF920F931F93CF93DF938FEF84BB78
S1130D808FE08ABB88E881BB80E782BBB0DE09E8DC
S1130D9015E0C80166E071E04DE05EE024E935E06D
S1130DA01BD1C8016AED70E053D3C801F3D0C80168
S1130DB060E044E120E031E0F5D4C801E2D00F2E38
S1130DC0F0E3AF2EBB24F02D0F2EF2E3CF2EDD2463
S1130DD0F02D78010F2EF0E08F2EF1E09F2EF02DF4
S1130DE00F2EF8EE6F2EF3E07F2EF02DC0E9D1E048
S1130DF0F501808190E08077907080359105F9F05D
S1130E008036910509F030C0F601808180688083C6
S1130E10C701C0D0C70160E044E19401C3D4C70155
S1130E2060E04AE022E302E324D0C701AAD09301A0
S1130E30CE010197F1F721503040D1F7D9CFF60117
S1130E40808180688083C701A5D0C70160E042E348
S1130E509401A8D4C70195D09301CE010197F1F76D
S1130E6021503040D1F7C4CFF60180818F77808341
S1130E70BFCFBF92CF92DF92EF92FF920F931F9357
S1130E80CF93DF93EC01F62E142FD22EE02EC22E38
S1130E90C60EB02EB40E2C2D0B2D53D58823C9F0BD
S1130EA0CE016F2D412F2D2D00E029D5CE016F2DC0
S1130EB0412F2E2D01E023D56C2D6150CE01412F01
S1130EC02E2D1DD54B2D4150CE016F2D2D2D00E023
S1130ED016D5DF91CF911F910F91FF90EF90DF9086
S1130EE0CF90BF9008959F92AF92BF92CF92DF921E
S1130EF0EF92FF920F931F93CF93DF937C01DC015A
S1130F0091969C9091979296DC909297ED91FC919A
S1130F10A188B82ECF2CC0E0D0E0D701ED91FC9190
S1130F20119720895F960D911C919097822F90E0E4
S1130F30880F991F880F991F880F991FFC01EC9F38
S1130F40C001ED9F900DFC9F900D1124080F191FF7
S1130F508B2D9C2D60E04D2D90D79E012F5F291580
S1130F6020F4D3942196DA14C0F2DF91CF911F912B
S1130F700F91FF90EF90DF90CF90BF90AF909F9034
S1130F8008950F931F938C01AEDFC801A3D71F915F
S1130F900F910895DC01ED91FC9111978089919650
S1130FA02C919197289F90011124220F331F220F17
S1130FB0331F220F331F5F968C915F9790969C91FD
S1130FC060E070E0422F532F0C94B312FC0188E0D0
S1130FD080838CE291E00895CF92DF92EF92FF92AA
S1130FE00F931F93DF93CF930F92CDB7DEB77C019E
S1130FF06B01FA01890169E070E14EEF5EE09F0147
S11310000E944511CE010196E1DFBC01C70149816F
S11310102AEB3CE086018BD50F90CF91DF911F9195
S11310200F91FF90EF90DF90CF900895FC01E60FB1
S1131030F11DE4918E2F0895FC01E60FF11D8491BA
S1131040382F20E03196E4912E0F311D822F932FFB
S11310500895EF92FF920F931F937C018B01CB01B4
S113106060E0E4DFF7018083C80161E0DFDFF701BE
S11310708183C80162E0DADFF7018283C80163E09B
S1131080D5DFF7018383C80164E0D0DFF7018483EF
S1131090C80165E0CBDFF7018583C80166E0C6DFE0
S11310A0F7018683C80167E0C1DFF7018783C801C0
S11310B068E0BCDFF7018087C80169E0B7DFF701AA
S11310C08187C8016AE0B2DFF7018287C8016BE05B
S11310D0ADDFF7018387C8016CE0A8DFF7018487DF
S11310E0C8016DE0A3DFF7018587C8016EE09EDFCC
S11310F0F7018687C8016FE099DFF7018787C80188
S113110060E194DFF701808BC80161E195DFF701AD
S1131110928B818BC80163E18FDFF701948B838B02
S1131120C80165E189DFF701968B858B1F910F91CB
S1131130FF90EF900895DC0118964C911897ED916B
S1131140FC911197849190E0042E02C095958795A7
S11311500A94E2F7582F362F340F383080F0319646
S11311601196FC93EE93E4918E2F90E028E0241BDB
S113117002C0880F991F2A95E2F7582B3850189609
S11311803C9381E090E002C0880F991F6A95E2F7D2
S11311908150852308951F93162FCDDF115021E030
S11311A030E002C0220F331F1A95E2F7821B1F9111
S11311B00895213039F0213018F0223039F404C078
S11311C0840F0895860F0895841B0895861B08953F
S11311D0213039F0213018F0223039F404C0860F60
S11311E00895841B0895861B0895840F08950F9312
S11311F01F93CF93DF93EC018C010E5C1F4F7BABED
S11312006AAB1AAEFC01ED5BFF4FC801608193DF4E
S113121088AFFE01EC5BFF4FC80160818CDF89AFB2
S1131220FE01E55AFF4F80818CAF1DAE882311F477
S113123081E08DAFDF91CF911F910F910895EF92CF
S1131240FF920F931F93CF93DF93FC017B0186A53D
S113125097A59C01295E3F4F6F3F710511F008F07F
S113126037C06136710538F0EE5AFF4F80819181A5
S1131270280F391F09C06134710530F0E05BFF4F5E
S113128080819181280F391FA9014F5F5F4FFA01B7
S11312908491882309F458C0F901849190E08E1553
S11312A09F0551F406C0F901849190E08E159F05C5
S11312B019F4F90132964AC0FA018491280F311DBC
S11312C0A9014F5F5F4FFA018491882361F73CC005
S11312D0EC5AFF4F80819181E901C80FD91F8E011B
S11312E0C80160E0A9DEC80FD91FC80162E0A4DE0E
S11312F00C5F1F4F8E159F0598F3FE012491922FCA
S113130080E03196E4912E2F30E0822B932B0097CE
S1131310D9F08E159F0539F403C08E159F0519F475
S1131320FE01339613C0FE013296E491CE0FD11D17
S1131330FE018491382F20E03196E4918E2F90E0C5
S1131340822B932B009749F7E0E0F0E08E2F9F2F3C
S1131350DF91CF911F910F91FF90EF900895CF935C
S1131360DF93EC018EA59FA5892B09F466C0DE01ED
S1131370A95ABF4FFE01E45BFF4F80818C93DE01CD
S1131380A85ABF4FFE01E35BFF4F80818C93FE019F
S1131390EA5AFF4FE081EE2309F44FC0E130E9F44B
S11313A0FE01E25BFF4F9081FE01E95AFF4F80810D
S11313B0891724F4FE01E95AFF4F9083FE01E15B93
S11313C0FF4F9081FE01E85AFF4F80819817ACF5DA
S11313D0FE01E85AFF4F908330C0FE01E75BFF4FE8
S11313E07081FE01E55BFF4F6081FE01E95AFF4F0A
S11313F04081552747FD5095862F992787FD909565
S1131400272F332727FD3095820F931F481759073D
S113141034F4FE01E95AFF4F862F870F8083FE01C3
S1131420E55BFF4F9081FE01E85AFF4F80819817DA
S113143024F4FE01E85AFF4F9083DF91CF91089581
S113144080E0089520E23AE0FC0131AB20AB08953E
S1131450CF93DF93EC018EA59FA58617970739F0EC
S11314607FA76EA7CE01CF96F4DDCE0178DFDF91A2
S1131470CF9108955F926F927F928F929F92AF92D5
S1131480BF92CF92DF92EF92FF920F931F93CF936D
S1131490DF93EC01842ECEA8EFA8D62E0F2EFBE509
S11314A06F2E7724F02D680E791E552488ADF82E02
S11314B0FC18BF2CDF1408F4BD2C0DA99E2C1EAD06
S11314C08CA96C2D4E2D212F83DEA82E802F6C2D00
S11314D04E2D212F6EDE482F882049F08CADF3016C
S11314E08083CE016A2D2B2D012F09D20BC08BAD29
S11314F0882341F48DADF3018083CE016A2D2B2D19
S11315000EADFDD1DF1420F0DF18E394C52CCECF4F
S11315108C2D8D0D8EAB9FAADF91CF911F910F91D2
S1131520FF90EF90DF90CF90BF90AF909F908F90FF
S11315307F906F905F9008958F929F92AF92BF9229
S1131540CF92DF92EF92FF920F931F93CF93DF938B
S1131550EC010F2EF2E3EF2EFF24F02DE80EF91E1E
S113156046DE99ACFE01EB5BFF4FC701608113DEE1
S1131570D82EFE01EA5BFF4FC70160810CDE182FF5
S1131580FE01E95BFF4FC701608105DE882E88AD4F
S113159018160CF074C0190D11958CA96D2D412FDE
S11315A02EAD16DE082F8CAB8DA96D2D412F2EADDF
S11315B000DE482F8DAB8EAD813079F0813038F06C
S11315C08230A1F08330F1F0202F342F23C088AD76
S11315D0202F280F392D340F1DC0902F9F5F092F06
S11315E0091988AD342F380F292F14C0802F8F5F2D
S11315F098AD082F091B942F9F5F492F4919282F55
S1131600392F08C0292D200F942F9F5F88AD492FB3
S1131610481B392FCE01602F032F93D1882379F1F2
S11316201EAA1FAA0F2EF1E4AF2EBB24F02DAC0E80
S1131630BD1E0F2EF2E4CF2EDD24F02DCC0EDD1EC8
S1131640C701F501608177DD082FC701F6016081CC
S113165072DD182FCE01602F40E00CDFCE01612F28
S113166041E008DFC70161E066DD882399F78FA9AF
S1131670891534F3FE01E55AFF4F8CAD8083882D24
S1131680DF91CF911F910F91FF90EF90DF90CF905A
S1131690BF90AF909F908F900895EF92FF920F9319
S11316A01F93CF93DF93EC01162F042F79018EAD96
S11316B0813069F0813028F0823079F08330C1F4D0
S11316C012C0E8A9F9A9CE010995080F11C0E8A92B
S11316D0F9A9CE010995181B0BC0E8A9F9A9CE01F7
S11316E00995081B05C0E8A9F9A9CE010995180FA9
S11316F01CAB0DABCE01B701A2DDBC01009711F408
S113170080E002C0CE0118DFDF91CF911F910F91CD
S1131710FF90EF900895BF92CF92DF92EF92FF92E5
S11317200F931F93CF93DF93EC01D62EE42E890100
S1131730B82ECD2E9D2F27D2FF2402C00F5F1F4F3E
S1131740EA81FB818B2D9C2DD8016C9109959C011C
S1131750BFEF8F3F9B07D9F08FEF2E3F380771F310
S1131760CE016D2D4E2D99DF9EAD913049F0913013
S113177028F0923039F0933041F406C0D80E05C0F9
S1131780E80E03C0D81A01C0E81AF80ED7CF8F2D7F
S1131790DF91CF911F910F91FF90EF90DF90CF9049
S11317A0BF900895FC0186EC9DE093838283CF0172
S11317B0B2CFDC01FB018C919081981740F484171F
S11317C020F4942F9150908304C01C9280E08417DD
S11317D048F4992339F0491710F081E008954083C3
S11317E081E0089580E00895EF92FF920F931F9394
S11317F0DF93CF9300D00F92CDB7DEB77C01DC012D
S113180092968C91929790E0880F991F880F991F58
S1131810880F991F481B213099F493968C919397C4
S1131820681708F062C094968C919497481708F052
S11318305CC05B96ED91FC915C97C701099555C01E
S1131840023059F4862F8F5F682F621B69834A83A5
S1131850F70154A133A110E019C0033071F4842FAF
S11318608F5F482F421B69834A83D70194965C910A
S1131870949793963C9111E01CC069834A83F701C5
S113188054A133A1102F117000FD13C0451768F542
S1131890862F820F8B83CE010196BE016D5F7F4F31
S11318A0432F87DF882309F19B818981292F281BF6
S11318B012C06317D0F4842F820F8B83CE0102965B
S11318C0BE016D5F7F4F452F74DF882371F09B81CC
S11318D08A81292F281BD7015B96ED91FC915C9797
S11318E0C70169814A81012F09950F900F900F90CC
S11318F0CF91DF911F910F91FF90EF9008950F9377
S1131900DC01222341F05D96ED91FC915E9702800B
S1131910F381E02D09950F910895461748F4821735
S113192010F481E0089580E0241750F481E00895D4
S1131930821710F080E0089580E0241708F481E015
S11319400895FF920F931F93CF93DF93EC01F62E2C
S1131950122F202F8CA56DA5E0DF882329F08AA5FE
S11319606BA54F2D212FD9DFDF91CF911F910F91BF
S1131970FF900895EF92FF920F931F93CF93DF93FD
S11319807C01162FA22F642F677081E090E0062E51
S113199001C0880F0A94EAF7F701E55AFF4FE08186
S11319A0E23010F070E006C0E13019F4782FB0E0B6
S11319B002C0782FB82F242F30E0287FE7014F8D05
S11319C058A1E881F981808990E0FC012E9FC00133
S11319D02F9F900D3E9F900D1124480F591FFA011F
S11319E0E10FF11D002339F48081872B8B2781932C
S11319F0A150D1F722C09701255A3F4F91E0808131
S1131A00872B8B278083862F8F5F682F6770A15069
S1131A10662379F4E7018BA1E80FF11DE9018881C0
S1131A20823028F4813011F4792F05C0792FB92F31
S1131A3002C0770FBB0FAA2311F7DF91CF911F913B
S1131A400F91FF90EF900895DC0191968C919197FE
S1131A5090E0880F991F880F991F880F991F9496FB
S1131A608C939497ED91FC9111978089803208F0C2
S1131A708FE190E0880F991F880F991F880F991F95
S1131A8093968C93939792964C919297242F30E04F
S1131A90C901880F991F880F991F880F991F782FE4
S1131AA095968C93959791965C919197ED91FC9175
S1131AB011976189250F311D862F90E082179307B6
S1131AC014F4562F541B852F880F880F880F969671
S1131AD07C939697870F97968C93979780EF989619
S1131AE08C939897ED91FC91119784899589813F06
S1131AF0910518F498968C939897ED91FC91119711
S1131B00868999968C9308950F931F938C019CDF7B
S1131B10F80112A683A183A786A184A787A185A71C
S1131B201F910F9108950F935FDE0F910895EF9227
S1131B30FF920F931F937C01D801FC0117A616A6F0
S1131B40348F238F70A3678F41A312A213AEE65A7A
S1131B50FF4F1082FC01E55AFF4F81E08083F701BB
S1131B60E45AFF4F8083F701168F058FED91FC91A6
S1131B70C7010995C70166DCF70116AE1F910F91E5
S1131B80FF90EF900895FC01158A0895662321F0D3
S1131B906A3011F070E002C06FEF7FEF862F972F4D
S1131BA00895FC01462FA085B18560E220E030E075
S1131BB0FD0109950895FC01762F9A01A085B18550
S1131BC067E1472FFD0109950895DF93CF930F92A5
S1131BD0CDB7DEB7698361E0AE014F5F5F4FEBDFE6
S1131BE00F90CF91DF910895EF92FF921F937C01A4
S1131BF0162F462F417069E42AD31695412F417060
S1131C00C7016EE424D316951170C7016FE4412F08
S1131C101ED31F91FF90EF900895AF92BF92CF9281
S1131C20DF92EF92FF920F931F93CF93DF93EC0118
S1131C30B42E6901683109F44FC0693130F464315C
S1131C4009F43BC0673139F408C0693109F453C061
S1131C50603209F43DC080E05EC0442309F45AC0F8
S1131C60EE24FF24AA246894A6F8F601EE0DFF1DC5
S1131C7000811A2D402F4170CE01612FE8D20695C4
S1131C801F5F1834B9F7E881F981CE016CE246850B
S1131C90DED2CE0168E441E0DAD2E881F981CE01F6
S1131CA06CE24785D4D2CE0168E440E0D0D20894F7
S1131CB0E11CF11CBE14C9F62DC0E881F98169E468
S1131CC04181C5D2CE0168E440E0C1D281E023C0A5
S1131CD06AE4BDD281E01FC0642F86DFE881F98108
S1131CE0AA85BB85CE016CE2428120E030E0FD0193
S1131CF0099581E010C0E881F981AA85BB856CE271
S1131D00438120E030E0FD010995CE016B2D6CDFAD
S1131D1081E001C081E0DF91CF911F910F91FF908D
S1131D20EF90DF90CF90BF90AF900895FC01462FC5
S1131D30A681B78165E120E030E0FD0109950895B1
S1131D40FC01762F9A01A681B78167E1472FFD0137
S1131D5009950895CF92DF92EF92FF920F931F930C
S1131D60DF93CF930F92CDB7DEB77C018B016E0169
S1131D700894C11CD11CD8016D918D016731C1F04B
S1131D80683118F4653180F105C06A31D0F06E3FD6
S1131D9059F522C0FD0141918F014983D70116965F
S1131DA0ED91FC911797C70120E030E00995E3CF4E
S1131DB0FD0181918F018983C70161E0A601C0DF24
S1131DC0DACFD7011696ED91FC911797C70140E041
S1131DD020E030E00995CFCFFD0141918F01498387
S1131DE0C70169E234D2C7CF0F90CF91DF911F9121
S1131DF00F91FF90EF90DF90CF900895EF92FF92B4
S1131E000F931F93CF93DF93EC01162F042F7901C7
S1131E106631A1F0673128F46431C9F0653129F4E1
S1131E2006C0673191F06A3190F080E017C060E03D
S1131E30B8DECE01602FC9DE81E010C060E0B1DE03
S1131E40CE01602FC2DE81E009C061E0AADEE88530
S1131E50F985CE01612F402F97010995DF91CF912C
S1131E601F910F91FF90EF900895FC01DB017183A6
S1131E70608352968C91808B08950F931F93DF9308
S1131E80CF9300D000D00F92CDB7DEB7DC016C83C6
S1131E904D832B831A8309831496ED91FC91159736
S1131EA06FE041E09E012F5F3F4F09950F900F9027
S1131EB00F900F900F90CF91DF911F910F91089584
S1131EC0FC01A481B58169E040E020E030E0FD013F
S1131ED009950895FC01A481B58160E140E020E00A
S1131EE030E0FD01099508950F931F938C01DC01E7
S1131EF01A96ED91FC911B9768E240E020E030E0F7
S1131F000995D8011696ED91FC911797C80164E1E3
S1131F1040E020E030E00995C8016BE441E097D14E
S1131F20D801ED91FC91C80169E2448190D1C801C6
S1131F306BE440E08CD1D801ED91FC91C80169E2D9
S1131F40448185D1C8016BE441E081D1D801ED9190
S1131F50FC91C80169E245817AD11F910F910895DE
S1131F60CF92DF92EF92FF920F931F93CF93DF9361
S1131F706C01EB01142F052F6A81660F660F660F43
S1131F8068736064D3DE812F902F7C01F701648134
S1131F90686BC601CBDE31C09A81892F885F887F48
S1131FA02B81182F191B211708F4122F812F890F49
S1131FB08A838B81811B8B83110F110F110F488131
S1131FC05981C601612FBCDE88819981810F911DE1
S1131FD0998388838B81882351F4F70180819181CF
S1131FE09983888382818B838C8181508C838A81BD
S1131FF090E087709070892B19F08C81882361F6AA
S1132000DF91CF911F910F91FF90EF90DF90CF90D0
S11320100895EF92FF920F931F93DF93CF9300D015
S113202000D00F92CDB7DEB77C01022F132F6A3098
S113203091F06B3018F4693039F408C06B3009F44E
S113204041C06F3009F4AAC080E0F5C063E171E0DB
S11320500CDF81E0F0C048DFD7011696ED91FC91CA
S11320601797C70168E141E020E030E009950AE0F4
S113207011E0C701B8016EDED7011696ED91FC910F
S11320801797C70169E140E020E030E00995D701E6
S11320901696ED91FC911797C70168E142E020E0A4
S11320A030E00995C701B80155DED7011696ED91C8
S11320B0FC911797C70169E140E020E030E0099501
S11320C081E0B9C04423A9F5DC011696ED91FC9199
S11320D0179768E141E020E030E009950DE011E058
S11320E0C701B80137DED7011696ED91FC91179719
S11320F0C70169E140E020E030E00995D701169678
S1132100ED91FC911797C70168E142E020E030E0CF
S11321100995C701B8011EDED7011696ED91FC9111
S11321201797C70169E140E020E030E0099581E0BC
S113213082C0DC011696ED91FC91179768E141E0AD
S113214020E030E0099500E111E0C701B80102DEAA
S1132150D7011696ED91FC911797C70169E140E00C
S113216020E030E00995D7011696ED91FC91179780
S1132170C70168E142E020E030E00995C701B801F9
S1132180E9DDD7011696ED91FC911797C70169E136
S113219040E020E030E0099581E04DC0E22FF32FCC
S11321A0808191819A83898393819B8382818C83AB
S11321B04D839830E8F4D7011696ED91FC9117976A
S11321C0C70168E141E020E030E00995C701BE01A4
S11321D06F5F7F4F402F512FC3DED7011696ED91CD
S11321E0FC911797C70169E140E020E030E00995D0
S11321F08B81803110F081E01EC0D7011696ED91DD
S1132200FC911797C70168E142E020E030E00995AE
S1132210C701BE016F5F7F4F402F512FA1DED70151
S11322201696ED91FC911797C70169E140E020E013
S113223030E0099581E00F900F900F900F900F9070
S1132240CF91DF911F910F91FF90EF900895FC01C2
S1132250A285B38520E030E0FD010995089580E072
S11322600895FC01118210828FE291E195838483A9
S1132270978386839187808793878287118A148ABC
S1132280158A8FEF828B878B08958F929F92AF92DE
S1132290BF92CF92DF92EF92FF920F931F937C0134
S11322A06B015A014901DDDFF701D582C482B7828F
S11322B0A6829186808613870287C70101DE1F915B
S11322C00F91FF90EF90DF90CF90BF90AF909F90D1
S11322D08F9008956CD008F481E0089594D088F02C
S11322E09F5790F0B92F9927B751A0F0D1F0660FFE
S11322F0771F881F991F1AF0BA95C9F712C0B13019
S113230081F09BD0B1E0089598C0672F782F88277B
S1132310B85F39F0B93FCCF3869577956795B39557
S1132320D9F73EF490958095709561957F4F8F4FC6
S11323309F4F0895E89409C097FB3EF490958095CB
S1132340709561957F4F8F4F9F4F9923A9F0F92F77
S113235096E9BB279395F695879577956795B795F5
S1132360F111F8CFFAF4BB0F11F460FF1BC06F5FDB
S11323707F4F8F4F9F4F16C0882311F096E911C0ED
S1132380772321F09EE8872F762F05C0662371F00E
S113239096E8862F70E060E02AF09A95660F771F22
S11323A0881FDAF7880F9695879597F90895990FFE
S11323B00008550FAA0BE0E8FEEF16161706E8070B
S11323C0F907C0F012161306E407F50798F0621B2C
S11323D0730B840B950B39F40A2661F0232B242B01
S11323E0252B21F408950A2609F4A140A6958FEF20
S11323F0811D811D089557FD9058440F551F59F0B4
S11324005F3F71F04795880F97FB991F61F09F3FDD
S113241079F087950895121613061406551FF2CF06
S11324204695F1DF08C0161617061806991FF1CF56
S113243086957105610508940895E894BB2766277D
S11324407727CB0197F90895B2DF08F48FEF089549
S11324500BD078C069D028F06ED018F0952309F01D
S11324605AC05FC01124EACFC6DFA0F3959FD1F311
S1132470950F50E0551F629FF001729FBB27F00D2E
S1132480B11D639FAA27F00DB11DAA1F649F662783
S1132490B00DA11D661F829F2227B00DA11D621FD2
S11324A0739FB00DA11D621F839FA00D611D221F8C
S11324B0749F3327A00D611D231F849F600D211D70
S11324C0822F762F6A2F11249F5750408AF0E1F013
S11324D088234AF0EE0FFF1FBB1F661F771F881F5C
S11324E091505040A9F79E3F510570F014C0A6CFFB
S11324F05F3FECF3983EDCF3869577956795B79547
S1132500F795E7959F5FC1F7FE2B880F911D969570
S1132510879597F9089597F99F6780E870E060E0E0
S113252008959FEF80EC089500240A941616170668
S113253018060906089500240A94121613061406B0
S113254005060895092E0394000C11F4882352F013
S1132550BB0F40F4BF2B11F460FF04C06F5F7F4FCB
S11325608F4F9F4F0895DC0101C06D93415050403F
S10B2570E0F70895F894FFCF91
S113257848656C6C6F00840D930D15C0FF153FFF03
S1132588153EFF0001641401060C4B00093D0000D0
S10F259804C8FA10080000800040000095
S9030000FC
